:020000040000FA
:02000000A32833
:040002000034003492
:0400080015200900B6
:04000C00F100030EEE
:100010008301F3000A08F2008A01080072088A00CE
:10002000730E8300F10E710E080006208312031375
:100030000B1C86170B1820200C1841200E200800DE
:10004000831203130608F600F61A2D20F61E372039
:1000500083120313F6010B10080083120313003000
:10006000F5008612831603130A30920008008312EB
:1000700003130130F5008616831603130530920032
:100080000800831203134F2083120313FF308F00E5
:100090007518FA30751CF5308E000C1008008312AC
:1000A0000313F40A7408F600F6190130F400F6019F
:1000B0005A2008008312031375186F20751C8920BD
:1000C000950075187C20751C9620F600761C17127A
:1000D00076181716F61C9712F61897160800831252
:1000E0000313740882078200093408340A34083480
:1000F0000934033400340334831203137408820771
:1001000082000034013400340134003400340034FF
:10011000003483120313740882078200023404340B
:1001200006340434023401340034013483120313DE
:10013000740882078200023401340034013402342E
:100140000134003402348312031304309200831606
:1001500003130A3092008312031397151715171211
:100160009712093095008316031307118612861320
:100170008312031386128613FF308F009B308E008C
:10018000831603130C14831203131014C8308B004E
:0A0190000030F5000130F400CC2827
:00000001FF
